:020000040800F2
:1000000000000220F5020008ED020008ED020008E1
:10001000ED020008ED020008ED02000800000000FB
:10002000000000000000000000000000ED020008D9
:10003000ED02000800000000ED020008ED020008DB
:10004000ED020008ED020008ED020008ED020008D4
:10005000ED020008ED020008ED020008ED020008C4
:10006000ED020008ED020008ED020008ED020008B4
:10007000ED020008ED020008ED020008ED020008A4
:10008000ED020008ED020008ED020008ED02000894
:10009000ED020008ED020008ED020008ED02000884
:1000A000ED020008ED020008ED020008ED02000874
:1000B000ED020008ED020008ED020008ED02000864
:1000C000ED020008ED020008ED020008ED02000854
:1000D000ED020008ED020008ED020008ED02000844
:1000E000ED02000880B400AF044B5B69034A43F0A3
:1000F0002003536100BFBD4680BC70470000024032
:1001000080B400AF044B5B69034A23F020035361C2
:1001100000BFBD4680BC70470000024080B400AF05
:10012000044B5B69034A83F02003536100BFBD4663
:1001300080BC70470000024080B485B000AF78609A
:100140000023FB6002E0FB680133FB60FB687A6818
:100150009A42F8D800BF00BF1437BD4680BC704734
:1001600080B500AFFFF7BEFF0448FFF7E5FFFFF7DC
:10017000C7FF0248FFF7E0FF00BF80BD20A10700D6
:1001800080B500AFFFF7AEFF0448FFF7D5FFFFF7DC
:10019000B7FF0248FFF7D0FF00BF80BDF049020063
:1001A00080B500AFFFF79EFF0948FFF7C5FFFFF7D7
:1001B000A7FF0748FFF7C0FFFFF794FF0448FFF7CA
:1001C000BBFFFFF79DFF0348FFF7B6FF00BF80BDF1
:1001D00090D0030020A1070080B500AFFFF782FF99
:1001E0000948FFF7A9FFFFF78BFF0748FFF7A4FFB8
:1001F000FFF778FF0448FFF79FFFFFF781FF0348F1
:10020000FFF79AFF00BF80BDA086010060AE0A0024
:1002100080B584B000AF0023FB600CE0FFF762FF05
:100220002048FFF789FFFFF76BFF1E48FFF784FFA9
:10023000FB680133FB60FB68022BEFDD1A48FFF718
:100240007BFF0023BB600CE0FFF74CFF1748FFF774
:1002500073FFFFF755FF1348FFF76EFFBB680133CD
:10026000BB60BB68022BEFDD0F48FFF765FF002383
:100270007B600CE0FFF736FF0A48FFF75DFFFFF7F2
:100280003FFF0848FFF758FF7B6801337B607B68BE
:10029000022BEFDD0648FFF74FFF00BF1037BD46CA
:1002A00080BD00BFF049020090D0030020A10700EC
:1002B00040420F0080B500AF0A4B1B6B094A43F068
:1002C00001031363084B1B68074A23F44063136060
:1002D000054B1B68044A43F480631360FFF798FFE3
:1002E000FCE700BF003802400000024080B400AFCD
:1002F00000BFFDE780B582B000AF104B7B60104BB4
:100300003B6007E07A68131D7B603B68191D39600C
:1003100012681A603B680B4A9342F3D30A4B3B6066
:1003200004E03B681A1D3A6000221A603B68074AE5
:100330009342F6D3FFF7BEFF00BFFDE7500300086E
:10034000000000200000002000000020000000202D
:04000005080002F5F8
:00000001FF
