:020000040800F2
:10000000000002208D01000885010008850100081C
:100010008501000885010008850100080000000036
:100020000000000000000000000000008501000842
:100030008501000800000000850100088501000816
:100040008501000885010008850100088501000878
:100050008501000885010008850100088501000868
:100060008501000885010008850100088501000858
:100070008501000885010008850100088501000848
:100080008501000885010008850100088501000838
:100090008501000885010008850100088501000828
:1000A0008501000885010008850100088501000818
:1000B0005901000885010008850100088501000834
:1000C00085010008850100088501000885010008F8
:1000D00085010008850100088501000885010008E8
:1000E0008501000880B500AF00F002F800BFFDE711
:1000F00080B400AF164B1B6C154A43F00103136428
:100100004FF0804343F67F629A624FF0804340F2A3
:10011000E732DA624FF0804300225A624FF08043A8
:10012000DB684FF0804243F00103D360094B1B684A
:10013000084A43F0805313604FF080431B684FF030
:10014000804243F00103136000BFBD4680BC70478E
:100150000038024000E100E080B400AF4FF080437F
:100160001B694FF0804223F001031361044B1B68AD
:100170000133034A136000BFBD4680BC704700BF17
:100180000000002080B400AF00BFFDE780B582B062
:1001900000AF104B7B60104B3B6007E07A68131D8B
:1001A0007B603B68191D396012681A603B680B4A16
:1001B0009342F3D30A4B3B6004E03B681A1D3A605C
:1001C00000221A603B68074A9342F6D3FFF78AFF82
:1001D00000BFFDE7E801000800000020000000204B
:0801E0000000002004000020D3
:040000050800018D61
:00000001FF
