:020000040800F2
:1000000000000220ED030008E5030008E5030008F6
:10001000E5030008E5030008E50300080000000010
:10002000000000000000000000000000E5030008E0
:10003000E503000800000000E5030008E5030008F0
:10004000E5030008E5030008E5030008E5030008F0
:10005000E5030008E5030008E5030008E5030008E0
:10006000E5030008E5030008E5030008E5030008D0
:10007000E5030008E5030008E5030008E5030008C0
:10008000E5030008E5030008E5030008E5030008B0
:10009000E5030008E5030008E5030008E5030008A0
:1000A000E5030008E5030008E5030008E503000890
:1000B000E5030008E5030008E5030008E503000880
:1000C000E5030008E5030008E5030008E503000870
:1000D000E5030008E5030008E5030008E503000860
:1000E000E503000880B485B000AF78600023FB60B2
:1000F00002E0FB680133FB60FB687A689A42F8D83B
:1001000000BF00BF1437BD4680BC704780B500AF4C
:100110000D21104800F03AF90346002B18D10E4B80
:100120001B780133DAB20C4B1A700B4B1B78022B85
:1001300002D9094B00221A700848FFF7D3FF00BF0D
:100140000D21044800F022F90346002BF8D000E00E
:1001500000BF80BD0008024000000020400D0300E9
:1001600080B500AF01220521074800F0EBF80748F1
:10017000FFF7B8FF00220521034800F0E3F8034829
:10018000FFF7B0FF00BF80BD0000024020A10700C4
:1001900080B500AF01220521074800F0D3F80748D9
:1001A000FFF7A0FF00220521034800F0CBF8034829
:1001B000FFF798FF00BF80BD00000240A08601004D
:1001C00080B582B000AF786001220521084800F0B8
:1001D000B9F87868FFF786FF00220521044800F08F
:1001E000B1F80448FFF77EFF00BF0837BD4680BD69
:1001F00000000240A086010080B500AF1248FFF762
:10020000DFFF1148FFF7DCFF0F48FFF7D9FF0F486A
:10021000FFF768FF0D48FFF7D3FF0C48FFF7D0FF4B
:100220000A48FFF7CDFF0948FFF75CFF0648FFF7D4
:10023000C7FF0548FFF7C4FF0348FFF7C1FF0448A5
:10024000FFF750FF00BF80BDA0860100E0930400CF
:1002500060AE0A0080B500AF01220521114800F010
:1002600027F800220D21104800F022F8FFF74EFF7A
:100270000E4B1B78022B0CD0022B0DDC002B02D076
:10028000012B03D008E0FFF76BFF09E0FFF780FFC9
:1002900006E0FFF7B1FF03E0044B00221A7000BF35
:1002A000E4E700BF00000240000802400000002018
:1002B00080B483B000AF78600B46FB701346BB7010
:1002C0007B681C4A934206D11B4B1B6B1A4A43F0B6
:1002D0000103136314E07B68184A934206D1164B5E
:1002E0001B6B154A43F00203136309E07B68144A51
:1002F000934205D1104B1B6B0F4A43F00403136369
:100300007B681A68FB785B00032101FA03F3DB4387
:100310001A407B681A607B681B68B978FA785200CB
:1003200001FA02F21A437B681A6000BF0C37BD461F
:1003300080BC7047000002400038024000040240C8
:100340000008024080B483B000AF78600B46FB70B9
:100350001346BB70BB78012B09D17B685A69FB78C7
:10036000012101FA03F31A437B685A6109E07B68B3
:100370005A69FB78012101FA03F3DB431A407B68D9
:100380005A6100BF0C37BD4680BC704780B483B053
:1003900000AF78600B46FB707B681A69FB7801211F
:1003A00001FA03F31340002B01D0012300E00023E6
:1003B00018460C37BD4680BC704780B483B000AF90
:1003C00078600B46FB707B685A69FB78012101FA63
:1003D00003F35A407B685A6100BF0C37BD4680BCAE
:1003E000704700BF80B400AF00BFFDE780B582B0AA
:1003F00000AF104B7B60104B3B6007E07A68131D29
:100400007B603B68191D396012681A603B680B4AB3
:100410009342F3D30A4B3B6004E03B681A1D3A60F9
:1004200000221A603B68074A9342F6D3FFF712FF97
:1004300000BFFDE748040008000000200000002085
:08044000000000200100002073
:04000005080003EDFF
:00000001FF
