:020000040800F2
:1000000000000220610100085901000859010008A0
:1000100059010008590100085901000800000000BA
:10002000000000000000000000000000590100086E
:10003000590100080000000059010008590100089A
:100040005901000859010008590100085901000828
:100050005901000859010008590100085901000818
:100060005901000859010008590100085901000808
:1000700059010008590100085901000859010008F8
:1000800059010008590100085901000859010008E8
:1000900059010008590100085901000859010008D8
:1000A00059010008590100085901000859010008C8
:1000B00059010008590100085901000859010008B8
:1000C00059010008590100085901000859010008A8
:1000D0005901000859010008590100085901000898
:1000E0005901000880B400AF184B1B6B174A43F04E
:1000F00001031363154B1B6B144A43F00403136392
:10010000134B1B68124A23F440631360104B1B68A7
:100110000F4A43F4806313600E4B1B680D4A23F0B3
:10012000406313600B4B1B6903F40053002B06D193
:10013000074B5B69064A43F020035361F2E7044B27
:100140005B69034A23F020035361EBE70038024068
:10015000000002400008024080B400AF00BFFDE78D
:1001600080B582B000AF104B7B60104B3B6007E066
:100170007A68131D7B603B68191D396012681A602C
:100180003B680B4A9342F3D30A4B3B6004E03B6865
:100190001A1D3A6000221A603B68074A9342F6D360
:1001A000FFF7A0FF00BFFDE7BC0100080000002032
:0C01B000000000200000002000000020E3
:04000005080001618D
:00000001FF
