:020000040800F2
:1000000000000220150200080D0200080D02000881
:100010000D0200080D0200080D020008000000009B
:100020000000000000000000000000000D020008B9
:100030000D020008000000000D0200080D0200087B
:100040000D0200080D0200080D0200080D02000854
:100050000D0200080D0200080D0200080D02000844
:100060000D0200080D0200080D0200080D02000834
:100070000D0200080D0200080D0200080D02000824
:100080000D0200080D0200080D0200080D02000814
:100090000D0200080D0200080D0200080D02000804
:1000A0000D0200080D0200080D0200080D020008F4
:1000B0000D0200080D0200080D0200080D020008E4
:1000C0000D0200080D0200080D0200080D020008D4
:1000D0000D0200080D0200080D0200080D020008C4
:1000E000D501000880B400AF104B1B6B0F4A43F0E2
:1000F000010313630D4B1B6B0C4A43F004031363A2
:100100000B4B1B680A4A23F440631360084B1B68BF
:10011000074A43F480631360064B1B68054A23F0CB
:100120004063136000BFBD4680BC7047003802408A
:10013000000002400008024080B400AF164B5B6C28
:10014000154A43F480435364144B5B69134A23F00C
:10015000F0035361114B5B69104A43F02003536174
:100160000F4BDB680E4A43F40053D3600C4B9B6883
:100170000B4A23F400539360094B1B68084A43F46D
:1001800000531360074B1B68064A43F480731360E7
:1001900000BFBD4680BC70470038024000380140B7
:1001A000003C014004E100E080B483B000AF0023D4
:1001B0007B6002E07B6801337B607B68044A93428A
:1001C000F8D900BF00BF0C37BD4680BC704700BFE8
:1001D0003F0D030080B500AF064B5B69054A83F015
:1001E00020035361FFF7E0FF034B4FF400525A61C5
:1001F00000BF80BD00000240003C014080B500AF60
:10020000FFF770FFFFF798FF00BFFDE780B400AF76
:1002100000BFFDE780B582B000AF104B7B60104B94
:100220003B6007E07A68131D7B603B68191D3960ED
:1002300012681A603B680B4A9342F3D30A4B3B6047
:1002400004E03B681A1D3A6000221A603B68074AC6
:100250009342F6D3FFF7D2FF00BFFDE7700200081C
:10026000000000200000002000000020000000200E
:0400000508000215D8
:00000001FF
