:020000040800F2
:10000000000002208102000879020008790200083D
:100010007902000879020008790200080000000057
:10002000000000000000000000000000790200084D
:100030007902000800000000790200087902000837
:1000400079020008790200087902000879020008A4
:100050007902000879020008790200087902000894
:100060007902000879020008790200087902000884
:100070007902000879020008790200087902000874
:100080007902000879020008790200087902000864
:100090007902000879020008790200087902000854
:1000A0007902000879020008790200087902000844
:1000B0007902000879020008790200087902000834
:1000C0007902000879020008790200087902000824
:1000D0007902000879020008790200087902000814
:1000E0007902000880B483B000AF00237B6002E097
:1000F0007B6801337B607B684CF24F329342F7D9C7
:1001000000BF00BF0C37BD4680BC704780B582B0D1
:1001100000AF0023FB710123BB7100F01DF8BB7918
:10012000002B0AD0FB790133FB71FB79632B0CD9CF
:100130006423FB710023BB7107E0FB79013BFB717A
:10014000FB79002B01D10123BB71FB79184600F02C
:1001500073F8FFF7C7FFE2E780B400AF344B1B6BC7
:10016000334A43F001031363314B1B6C304A43F0B5
:10017000010313642F4B1B682E4A23F44063136062
:100180002C4B1B682B4A43F400631360294B1B6AFA
:10019000284A23F470031362264B1B6A254A43F452
:1001A000801313624FF080430F229A624FF0804316
:1001B00040F2E732DA624FF080439B694FF08042B1
:1001C00023F0030393614FF080439B694FF080421B
:1001D00043F0080393614FF080439B694FF08042E6
:1001E00023F0700393614FF080439B694FF080428E
:1001F00043F0600393614FF080434FF4FA725A6307
:100200004FF080431B6A4FF0804243F001031362BA
:100210004FF0804301225A614FF080431B684FF03A
:10022000804243F00103136000BFBD4680BC7047AD
:10023000003802400000024080B483B000AF0346A3
:10024000FB71FB79642B01D96423FB714FF0804370
:10025000DB6A0133FA7902FB03F34FF08042054970
:10026000A1FB03135B09536300BF0C37BD4680BC81
:10027000704700BF1F85EB5180B400AF00BFFDE7A2
:1002800080B582B000AF104B7B60104B3B6007E045
:100290007A68131D7B603B68191D396012681A600B
:1002A0003B680B4A9342F3D30A4B3B6004E03B6844
:1002B0001A1D3A6000221A603B68074A9342F6D33F
:1002C000FFF724FF00BFFDE7DC020008000000206C
:0C02D000000000200000002000000020C2
:04000005080002816C
:00000001FF
