:020000040800F2
:10000000000002205D0100085501000855010008AC
:1000100055010008550100085501000800000000C6
:100020000000000000000000000000005501000872
:1000300055010008000000005501000855010008A6
:100040005501000855010008550100085501000838
:100050005501000855010008550100085501000828
:100060005501000855010008550100085501000818
:100070005501000855010008550100085501000808
:1000800055010008550100085501000855010008F8
:1000900055010008550100085501000855010008E8
:1000A00055010008550100085501000855010008D8
:1000B00055010008550100085501000855010008C8
:1000C00055010008550100085501000855010008B8
:1000D00055010008550100085501000855010008A8
:1000E0005501000880B483B000AF00237B6002E0BC
:1000F0007B6801337B607B68044A9342F8D900BF78
:1001000000BF0C37BD4680BC704700BF1FA1070071
:1001100080B500AF0D4B1B6B0C4A43F0010313631A
:100120000B4B1B680A4A23F440631360084B1B689F
:10013000074A43F480631360054B5B69044A83F00C
:1001400020035361FFF7CEFF00BFF5E70038024000
:100150000000024080B400AF00BFFDE780B582B070
:1001600000AF104B7B60104B3B6007E07A68131DBB
:100170007B603B68191D396012681A603B680B4A46
:100180009342F3D30A4B3B6004E03B681A1D3A608C
:1001900000221A603B68074A9342F6D3FFF7B8FF84
:1001A00000BFFDE7B80100080000002000000020AB
:0801B000000000200000002007
:040000050800015D91
:00000001FF
