:020000040800F2
:1000000000000220E9010008E1010008E101000808
:10001000E1010008E1010008E10100080000000022
:10002000000000000000000000000000E1010008E6
:10003000E101000800000000E1010008E101000802
:10004000E1010008E1010008E1010008E101000808
:10005000E1010008E1010008E1010008E1010008F8
:10006000E1010008E1010008E1010008E1010008E8
:10007000E1010008E1010008E1010008E1010008D8
:10008000E1010008E1010008E1010008E1010008C8
:10009000E1010008E1010008E1010008E1010008B8
:1000A000E1010008E1010008E1010008E1010008A8
:1000B000E1010008E1010008E1010008E101000898
:1000C000E1010008E1010008E1010008E101000888
:1000D000E1010008E1010008E1010008E101000878
:1000E000A901000880B400AF104B1B6B0F4A43F00E
:1000F000010313630D4B1B6B0C4A43F004031363A2
:100100000B4B1B680A4A23F440631360084B1B68BF
:10011000074A43F480631360064B1B68054A23F0CB
:100120004063136000BFBD4680BC7047003802408A
:10013000000002400008024080B400AF164B5B6C28
:10014000154A43F480435364144B5B69134A23F00C
:10015000F0035361114B5B69104A43F02003536174
:100160000F4BDB680E4A43F40053D3600C4B9B6883
:100170000B4A23F400539360094B1B68084A43F46D
:1001800000531360074B1B68064A43F480731360E7
:1001900000BFBD4680BC70470038024000380140B7
:1001A000003C014004E100E080B400AF064B5B6915
:1001B000054A83F020035361044B4FF400525A6107
:1001C00000BFBD4680BC704700000240003C0140BB
:1001D00080B500AFFFF786FFFFF7AEFF00BFFDE77A
:1001E00080B400AF00BFFDE780B582B000AF104B18
:1001F0007B60104B3B6007E07A68131D7B603B68B7
:10020000191D396012681A603B680B4A9342F3D398
:100210000A4B3B6004E03B681A1D3A6000221A60FA
:100220003B68074A9342F6D3FFF7D2FF00BFFDE7D2
:100230004402000800000020000000200000002010
:04024000000000209A
:04000005080001E905
:00000001FF
