:020000040800F2
:10000000000002209D0400089504000895040008E3
:1000100095040008950400089504000800000000FD
:10002000000000000000000000000000950400082F
:1000300095040008000000009504000895040008DD
:10004000950400089504000895040008950400082C
:10005000950400089504000895040008950400081C
:10006000950400089504000895040008950400080C
:1000700095040008950400089504000895040008FC
:1000800095040008950400089504000895040008EC
:1000900095040008950400089504000895040008DC
:1000A00095040008950400089504000895040008CC
:1000B000E101000895040008950400089504000873
:1000C00095040008950400089504000895040008AC
:1000D000950400089504000895040008950400089C
:1000E0009504000880B586B000AF4FF080433B60B8
:1000F0001E4B7B6005233B7201237B720123BB7285
:100100004FF47A73FB603B46184600F0C5F800F0E8
:100110002FF800237B610023FB740123BB7400F0E4
:100120007BF802467B69D31A092BF8D900F074F8E2
:100130007861FA7C3B461146184600F08BF9BB7C8F
:10014000002B09D0FB7C632B03D8FB7C0133FB74B1
:10015000E5E70023BB74E2E7FB7C002B03D0FB7CCC
:10016000013BFB74DBE70123BB74D8E700000240CE
:1001700080B400AF184B1B6C174A43F001031364A3
:100180004FF080430F229A624FF0804340F2E732F3
:10019000DA624FF0804301225A614FF0804300221F
:1001A0005A624FF08043DB684FF0804243F0010316
:1001B000D3600A4B1B68094A43F0805313604FF029
:1001C00080431B684FF0804243F00103136000BF7F
:1001D000BD4680BC704700BF0038024000E100E02F
:1001E00080B400AF4FF080431B6903F00103002B84
:1001F0000CD04FF080431B694FF0804223F0010385
:100200001361044B1B680133024A136000BFBD46F3
:1002100080BC70470000002080B400AF024B1B6818
:100220001846BD4680BC70470000002080B582B0F3
:1002300000AF78603960FFF7EFFF02467B681A6015
:100240007B683A685A6000BF0837BD4680BD80B5FC
:1002500084B000AF7860FFF7DFFF02467B681B6861
:10026000D31AFB607B685B68FA689A4201D301236A
:1002700000E0002318461037BD4680BD80B582B02F
:1002800000AF7860FFF7C8FF02467B681A6000BFC6
:100290000837BD4680BD00BF80B485B000AF786030
:1002A0007B685B68654A934206D1654B1B6B644A69
:1002B00043F0010313632EE07B685B68614A93425D
:1002C00006D15F4B1B6B5E4A43F00203136322E0CF
:1002D0007B685B685C4A934206D1594B1B6B584A5A
:1002E00043F00403136316E07B685B68574A93424C
:1002F00006D1534B1B6B524A43F0080313630AE0C9
:100300007B685B68524A934205D14D4B1B6B4C4A4C
:1003100043F0100313637B681B68B3F1804F05D172
:10032000474B1B6C464A43F0010313647B685B68D0
:1003300019687B681B7A5B00032202FA03F3DA4335
:100340007B685B680A401A607B685B6819687B6839
:100350001B7A5B0002229A407B685B680A431A6042
:100360007B681B7A072B08D87B685B682033FB60AF
:100370007B681B7A9B00FB7209E07B685B68243317
:10038000FB607B681B7A083BDBB29B00FB72FB685F
:100390001A68FB7A0F2101FA03F3DB431A40FB686A
:1003A0001A60FB681A687B685B7A1946FB7A01FA67
:1003B00003F31A43FB681A607B681B680F229A627A
:1003C0007B681B6840F2E732DA627B681B689A69D7
:1003D0007B681B6822F070029A617B681B689A69CF
:1003E0007B681B6842F060029A617B681B689A69AF
:1003F0007B681B6842F008029A617B681B681A6A76
:100400007B681B6842F001021A627B681B6800224D
:100410005A637B681B685A697B681B6842F001025B
:100420005A617B681B681A687B681B6842F001028E
:100430001A6000BF1437BD4680BC70470000024000
:10044000003802400004024000080240000C024054
:100450000010024080B483B000AF78600B46FB70A0
:10046000FB78642B01D96423FB707B681B68DB6A13
:100470000133FA7803FB02F27B681B680449A1FB95
:10048000021252095A6300BF0C37BD4680BC704748
:100490001F85EB5180B400AF00BFFDE780B582B08F
:1004A00000AF104B7B60104B3B6007E07A68131D78
:1004B0007B603B68191D396012681A603B680B4A03
:1004C0009342F3D30A4B3B6004E03B681A1D3A6049
:1004D00000221A603B68074A9342F6D3FFF702FEF8
:1004E00000BFFDE7F8040008000000200000002025
:0804F0000000002004000020C0
:040000050800049D4E
:00000001FF
