:020000040800F2
:1000000000000220090300080103000801030008A2
:1000100001030008010300080103000800000000BC
:1000200000000000000000000000000001030008C4
:100030000103000800000000010300088D02000811
:100040000103000801030008010300080103000880
:100050000103000801030008010300080103000870
:100060000103000801030008010300080103000860
:100070000103000801030008010300080103000850
:100080000103000801030008010300080103000840
:100090000103000801030008010300080103000830
:1000A0000103000801030008010300080103000820
:1000B0000103000801030008010300080103000810
:1000C0000103000801030008010300080103000800
:1000D00001030008010300080103000801030008F0
:1000E0000103000880B582B000AF012205210B4852
:1000F00000F016F800F0AEF83B464FF4FA711846DF
:1001000000F0D2F83B46184600F0DFF80346002B1B
:10011000F8D00521014800F088F8F3E7000002401C
:1001200080B483B000AF78600B46FB701346BB70A1
:100130007B681C4A934206D11B4B1B6B1A4A43F047
:100140000103136314E07B68184A934206D1164BEF
:100150001B6B154A43F00203136309E07B68144AE2
:10016000934205D1104B1B6B0F4A43F004031363FA
:100170007B681A68FB785B00032101FA03F3DB4319
:100180001A407B681A607B681B68B978FA7852005D
:1001900001FA02F21A437B681A6000BF0C37BD46B1
:1001A00080BC70470000024000380240000402405A
:1001B0000008024080B483B000AF78600B46FB704B
:1001C0001346BB70BB78012B09D17B685A69FB7859
:1001D000012101FA03F31A437B685A6109E07B6845
:1001E0005A69FB78012101FA03F3DB431A407B686B
:1001F0005A6100BF0C37BD4680BC704780B483B0E5
:1002000000AF78600B46FB707B681A69FB780121B0
:1002100001FA03F31340002B01D0012300E0002377
:1002200018460C37BD4680BC704780B483B000AF21
:1002300078600B46FB707B685A69FB78012101FAF4
:1002400003F35A407B685A6100BF0C37BD4680BC3F
:10025000704700BF80B400AF064B43F67F625A6020
:10026000044B00229A60034B07221A6000BFBD4670
:1002700080BC704710E000E080B400AF024B1B6808
:100280001846BD4680BC70470000002080B400AF17
:10029000044B1B680133034A136000BFBD4680BC9A
:1002A000704700BF0000002080B582B000AF7860CA
:1002B0003960FFF7E1FF02467B681A607B683A68A5
:1002C0005A6000BF0837BD4680BD80B582B000AF20
:1002D0007860FFF7D1FF02467B681B68D21A7B6803
:1002E0005B689A4206D3FFF7C7FF02467B681A6035
:1002F000012300E0002318460837BD4680BD0000FA
:1003000080B400AF00BFFDE780B582B000AF104BF6
:100310007B60104B3B6007E07A68131D7B603B6895
:10032000191D396012681A603B680B4A9342F3D377
:100330000A4B3B6004E03B681A1D3A6000221A60D9
:100340003B68074A9342F6D3FFF7CCFE00BFFDE7B8
:1003500064030008000000200000002000000020CE
:040360000400002075
:0400000508000309E3
:00000001FF
