:020000040800F2
:1000000000000220B1020008A9020008A9020008AD
:10001000A9020008A9020008A902000800000000C7
:10002000000000000000000000000000A90200081D
:10003000A902000800000000A90200088D020008C3
:10004000A9020008A9020008A9020008A9020008E4
:10005000A9020008A9020008A9020008A9020008D4
:10006000A9020008A9020008A9020008A9020008C4
:10007000A9020008A9020008A9020008A9020008B4
:10008000A9020008A9020008A9020008A9020008A4
:10009000A9020008A9020008A9020008A902000894
:1000A000A9020008A9020008A9020008A902000884
:1000B000A9020008A9020008A9020008A902000874
:1000C000A9020008A9020008A9020008A902000864
:1000D000A9020008A9020008A9020008A902000854
:1000E000A902000880B582B000AF012205210B48AB
:1000F00000F016F800F0AEF800237B6000F0BCF8CA
:1001000002467B68D31AB3F5FA7FF7D300F0B4F850
:1001100078600521014800F088F8EFE70000024010
:1001200080B483B000AF78600B46FB701346BB70A1
:100130007B681C4A934206D11B4B1B6B1A4A43F047
:100140000103136314E07B68184A934206D1164BEF
:100150001B6B154A43F00203136309E07B68144AE2
:10016000934205D1104B1B6B0F4A43F004031363FA
:100170007B681A68FB785B00032101FA03F3DB4319
:100180001A407B681A607B681B68B978FA7852005D
:1001900001FA02F21A437B681A6000BF0C37BD46B1
:1001A00080BC70470000024000380240000402405A
:1001B0000008024080B483B000AF78600B46FB704B
:1001C0001346BB70BB78012B09D17B685A69FB7859
:1001D000012101FA03F31A437B685A6109E07B6845
:1001E0005A69FB78012101FA03F3DB431A407B686B
:1001F0005A6100BF0C37BD4680BC704780B483B0E5
:1002000000AF78600B46FB707B681A69FB780121B0
:1002100001FA03F31340002B01D0012300E0002377
:1002200018460C37BD4680BC704780B483B000AF21
:1002300078600B46FB707B685A69FB78012101FAF4
:1002400003F35A407B685A6100BF0C37BD4680BC3F
:10025000704700BF80B400AF064B43F67F625A6020
:10026000044B00229A60034B07221A6000BFBD4670
:1002700080BC704710E000E080B400AF024B1B6808
:100280001846BD4680BC70470000002080B400AF17
:10029000044B1B680133034A136000BFBD4680BC9A
:1002A000704700BF0000002080B400AF00BFFDE732
:1002B00080B582B000AF104B7B60104B3B6007E015
:1002C0007A68131D7B603B68191D396012681A60DB
:1002D0003B680B4A9342F3D30A4B3B6004E03B6814
:1002E0001A1D3A6000221A603B68074A9342F6D30F
:1002F000FFF7F8FE00BFFDE70C0300080000002038
:0C0300000000002000000020040000208D
:04000005080002B13C
:00000001FF
