:020000040800F2
:1000000000000220250300081D0300081D0300084E
:100010001D0300081D0300081D0300080000000068
:100020000000000000000000000000001D030008A8
:100030001D030008000000001D0300081D03000848
:100040001D0300081D0300081D0300081D03000810
:100050001D0300081D0300081D0300081D03000800
:100060001D0300081D0300081D0300081D030008F0
:100070001D0300081D0300081D0300081D030008E0
:100080001D0300081D0300081D0300081D030008D0
:100090001D0300081D0300081D0300081D030008C0
:1000A0001D0300081D0300081D0300081D030008B0
:1000B0001D0300081D0300081D0300081D030008A0
:1000C0001D0300081D0300081D0300081D03000890
:1000D0001D0300081D0300081D0300081D03000880
:1000E0001D03000880B584B000AF4FF080433B6033
:1000F0000A4B7B6005233B7201237B720123BB7299
:100100004FF47A73FB603B46184600F009F83B4613
:100110001921184600F0E2F8F9E700BF000002409C
:1001200080B485B000AF78607B685B68654A9342B5
:1001300006D1654B1B6B644A43F0010313632EE049
:100140007B685B68614A934206D15F4B1B6B5E4ADA
:1001500043F00203136322E07B685B685C4A9342CE
:1001600006D1594B1B6B584A43F00403136316E046
:100170007B685B68574A934206D1534B1B6B524ACC
:1001800043F0080313630AE07B685B68524A9342BA
:1001900005D14D4B1B6B4C4A43F0100313637B6836
:1001A0001B68B3F1804F05D1474B1B6C464A43F0A7
:1001B000010313647B685B6819687B681B7A5B00CA
:1001C000032202FA03F3DA437B685B680A401A6091
:1001D0007B685B6819687B681B7A5B0002229A4027
:1001E0007B685B680A431A607B681B7A072B08D818
:1001F0007B685B682033FB607B681B7A9B00FB722B
:1002000009E07B685B682433FB607B681B7A083BF2
:10021000DBB29B00FB72FB681A68FB7A0F2101FAC4
:1002200003F3DB431A40FB681A60FB681A687B68BB
:100230005B7A1946FB7A01FA03F31A43FB681A60EA
:100240007B681B680F229A627B681B6840F2E7326A
:10025000DA627B681B689A697B681B6822F070020F
:100260009A617B681B689A697B681B6842F0600230
:100270009A617B681B689A697B681B6842F0080278
:100280009A617B681B681A6A7B681B6842F00102EE
:100290001A627B681B6800225A637B681B685A6974
:1002A0007B681B6842F001025A617B681B681A6810
:1002B0007B681B6842F001021A6000BF1437BD461C
:1002C00080BC704700000240003802400004024039
:1002D00000080240000C02400010024080B483B0CD
:1002E00000AF78600B46FB70FB78642B01D9642368
:1002F000FB707B681B68DB6A0133FA7803FB02F250
:100300007B681B680449A1FB021252095A6300BFB3
:100310000C37BD4680BC70471F85EB5180B400AFE1
:1003200000BFFDE780B582B000AF104B7B60104B83
:100330003B6007E07A68131D7B603B68191D3960DC
:1003400012681A603B680B4A9342F3D30A4B3B6036
:1003500004E03B681A1D3A6000221A603B68074AB5
:100360009342F6D3FFF7BEFE00BFFDE7800300080F
:1003700000000020000000200000002000000020FD
:0400000508000325C7
:00000001FF
