:020000040800F2
:1000000000000220CD020008C5020008C502000859
:10001000C5020008C5020008C50200080000000073
:10002000000000000000000000000000C502000801
:10003000C502000800000000C5020008C502000853
:10004000C5020008C5020008C5020008C502000874
:10005000C5020008C5020008C5020008C502000864
:10006000C5020008C5020008C5020008C502000854
:10007000C5020008C5020008C5020008C502000844
:10008000C5020008C5020008C5020008C502000834
:10009000C5020008C5020008C5020008C502000824
:1000A000C5020008C5020008C5020008C502000814
:1000B000C5020008C5020008C5020008C502000804
:1000C000C5020008C5020008C5020008C5020008F4
:1000D000C5020008C5020008C5020008C5020008E4
:1000E000C502000880B500AF012205210B4800F0D1
:1000F00017F800F0BFF801220521084800F05AF86F
:10010000642000F0C9F800220521044800F052F8EC
:10011000642000F0C1F800BFEDE700BF000002401E
:1001200080B483B000AF78600B46FB701346BB70A1
:100130007B681C4A934206D11B4B1B6B1A4A43F047
:100140000103136314E07B68184A934206D1164BEF
:100150001B6B154A43F00203136309E07B68144AE2
:10016000934205D1104B1B6B0F4A43F004031363FA
:100170007B681A68FB785B00032101FA03F3DB4319
:100180001A407B681A607B681B68B978FA7852005D
:1001900001FA02F21A437B681A6000BF0C37BD46B1
:1001A00080BC70470000024000380240000402405A
:1001B0000008024080B483B000AF78600B46FB704B
:1001C0001346BB70BB78012B09D17B685A69FB7859
:1001D000012101FA03F31A437B685A6109E07B6845
:1001E0005A69FB78012101FA03F3DB431A407B686B
:1001F0005A6100BF0C37BD4680BC704780B483B0E5
:1002000000AF78600B46FB707B681A69FB780121B0
:1002100001FA03F31340002B01D0012300E0002377
:1002200018460C37BD4680BC704780B483B000AF21
:1002300078600B46FB707B685A69FB78012101FAF4
:1002400003F35A407B685A6100BF0C37BD4680BC3F
:10025000704700BF80B400AF00BF054B1B6803F4BC
:100260008033002BF9D000BF00BFBD4680BC704773
:1002700010E000E080B400AF064B43F67F625A60A6
:10028000044B00229A60034B05221A6000BFBD4652
:1002900080BC704710E000E080B584B000AF7860AB
:1002A0000023FB6004E0FFF7D5FFFB680133FB6030
:1002B000FA687B689A42F6D300BF00BF1037BD468C
:1002C00080BD00BF80B400AF00BFFDE780B582B045
:1002D00000AF104B7B60104B3B6007E07A68131D4A
:1002E0007B603B68191D396012681A603B680B4AD5
:1002F0009342F3D30A4B3B6004E03B681A1D3A601B
:1003000000221A603B68074A9342F6D3FFF7EAFEE1
:1003100000BFFDE7280300080000002000000020C7
:08032000000000200000002095
:04000005080002CD20
:00000001FF
