:020000040800F2
:10000000000002201D01000815010008150100086C
:100010001501000815010008150100080000000086
:1000200000000000000000000000000015010008B2
:100030001501000800000000150100081501000866
:100040001501000815010008150100081501000838
:100050001501000815010008150100081501000828
:100060001501000815010008150100081501000818
:100070001501000815010008150100081501000808
:1000800015010008150100081501000815010008F8
:1000900015010008150100081501000815010008E8
:1000A00015010008150100081501000815010008D8
:1000B00015010008150100081501000815010008C8
:1000C00015010008150100081501000815010008B8
:1000D00015010008150100081501000815010008A8
:1000E0001501000880B500AF00F002F800BFFDE781
:1000F00080B400AF064B43F67F625A60044B002287
:100100009A60034B05221A6000BFBD4680BC704751
:1001100010E000E080B400AF00BFFDE780B582B022
:1001200000AF104B7B60104B3B6007E07A68131DFB
:100130007B603B68191D396012681A603B680B4A86
:100140009342F3D30A4B3B6004E03B681A1D3A60CC
:1001500000221A603B68074A9342F6D3FFF7C2FFBA
:1001600000BFFDE77801000800000020000000202B
:08017000000000200000002047
:040000050800011DD1
:00000001FF
