:020000040800F2
:10000000000002204D0400084504000845040008D3
:1000100045040008450400084504000800000000ED
:10002000000000000000000000000000450400087F
:1000300045040008000000004504000845040008CD
:10004000450400084504000845040008450400086C
:10005000450400084504000845040008450400085C
:10006000450400084504000845040008450400084C
:10007000450400084504000845040008450400083C
:10008000450400084504000845040008450400082C
:10009000450400084504000845040008450400081C
:1000A000450400084504000845040008450400080C
:1000B0006D020008450400084504000845040008D6
:1000C00045040008450400084504000845040008EC
:1000D00045040008450400084504000845040008DC
:1000E0004504000880B500AF00F01CF9642000F062
:1000F00089F900BFFDE7000080B483B000AF7860ED
:100100000B46FB701346BB707B681C4A934206D1BA
:100110001B4B1B6B1A4A43F00103136314E07B680B
:10012000184A934206D1164B1B6B154A43F0020343
:10013000136309E07B68144A934205D1104B1B6B93
:100140000F4A43F0040313637B681A68FB785B0073
:10015000032101FA03F3DB431A407B681A607B68D2
:100160001B68B978FA78520001FA02F21A437B68E8
:100170001A6000BF0C37BD4680BC704700000240CB
:1001800000380240000402400008024080B483B0FE
:1001900000AF78600B46FB701346BB70BB78012B39
:1001A00009D17B685A69FB78012101FA03F31A43EC
:1001B0007B685A6109E07B685A69FB78012101FA82
:1001C00003F3DB431A407B685A6100BF0C37BD461E
:1001D00080BC704780B483B000AF78600B46FB7082
:1001E0007B685A69FB78012101FA03F35A407B6866
:1001F0005A6100BF0C37BD4680BC704780B400AF69
:10020000184B1B6C174A43F0010313644FF08043F3
:100210000F229A624FF0804340F2E732DA624FF0E9
:10022000804301225A614FF0804300225A624FF00E
:100230008043DB684FF0804243F00103D3600A4BF8
:100240001B68094A43F0805313604FF080431B68DA
:100250004FF0804243F00103136000BFBD4680BCF5
:10026000704700BF0038024000E100E080B400AFFA
:100270004FF080431B6903F00103002B0CD04FF0BB
:1002800080431B694FF0804223F001031361044B4C
:100290001B680133024A136000BFBD4680BC704733
:1002A0000000002080B400AF024B1B681846BD461A
:1002B00080BC70470000002080B582B000AF78603D
:1002C0003960FFF7EFFF02467B681A607B683A6887
:1002D0005A6000BF0837BD4680BD80B584B000AF0E
:1002E0007860FFF7DFFF02467B681B68D31AFB606C
:1002F0007B685B68FA689A4201D3012300E000231F
:1003000018461037BD4680BD80B582B000AF78601A
:10031000FFF7C8FF02467B681A6000BF0837BD467A
:1003200080BD00BF80B400AF344B1B6B334A43F039
:1003300001031363314B1B6C304A43F00103136418
:100340002F4B1B682E4A23F4406313602C4B1B6811
:100350002B4A43F400631360294B1B6A284A23F499
:1003600070031362264B1B6A254A43F48013136201
:100370004FF080430F229A624FF0804340F2E73201
:10038000DA624FF080439B694FF0804223F0030311
:1003900093614FF080439B694FF0804243F0080324
:1003A00093614FF080439B694FF0804223F07003CC
:1003B00093614FF080439B694FF0804243F06003AC
:1003C00093614FF080434FF4FA725A634FF08043C9
:1003D0001B6A4FF0804243F0010313624FF08043E9
:1003E00001225A614FF080431B684FF0804243F076
:1003F0000103136000BFBD4680BC70470038024057
:100400000000024080B483B000AF0346FB71FB796B
:10041000642B01D96423FB714FF08043DB6A013305
:10042000FA7902FB03F34FF080420549A1FB031365
:100430005B09536300BF0C37BD4680BC704700BFEB
:100440001F85EB5180B400AF00BFFDE780B582B0DF
:1004500000AF104B7B60104B3B6007E07A68131DC8
:100460007B603B68191D396012681A603B680B4A53
:100470009342F3D30A4B3B6004E03B681A1D3A6099
:1004800000221A603B68074A9342F6D3FFF72AFE20
:1004900000BFFDE7A80400080000002000000020C5
:0804A000000000200400002010
:040000050800044D9E
:00000001FF
