:020000040800F2
:100000000000022069020008610200086102000885
:10001000610200086102000861020008000000009F
:100020000000000000000000000000006102000865
:10003000610200080000000061020008610200087F
:100040006102000861020008610200086102000804
:1000500061020008610200086102000861020008F4
:1000600061020008610200086102000861020008E4
:1000700061020008610200086102000861020008D4
:1000800061020008610200086102000861020008C4
:1000900061020008610200086102000861020008B4
:1000A00061020008610200086102000861020008A4
:1000B0006102000861020008610200086102000894
:1000C0006102000861020008610200086102000884
:1000D0006102000861020008610200086102000874
:1000E0006102000880B485B000AF78600023FB6037
:1000F00002E0FB680133FB60FB687A689A42F8D83B
:1001000000BF00BF1437BD4680BC704780B500AF4C
:10011000012205210D4800F01DF800220D210C4898
:1001200000F018F80D210A4800F082F80346002B71
:1001300005D101220521054800F056F8F2E700221A
:100140000521024800F050F8ECE700BF0000024033
:100150000008024080B483B000AF78600B46FB70AB
:100160001346BB707B681C4A934206D11B4B1B6B2A
:100170001A4A43F00103136314E07B68184A934260
:1001800006D1164B1B6B154A43F00203136309E0BB
:100190007B68144A934205D1104B1B6B0F4A43F006
:1001A000040313637B681A68FB785B00032101FA80
:1001B00003F3DB431A407B681A607B681B68B978DD
:1001C000FA78520001FA02F21A437B681A6000BF03
:1001D0000C37BD4680BC704700000240003802402A
:1001E000000402400008024080B483B000AF786091
:1001F0000B46FB701346BB70BB78012B09D17B68A3
:100200005A69FB78012101FA03F31A437B685A61AA
:1002100009E07B685A69FB78012101FA03F3DB43AB
:100220001A407B685A6100BF0C37BD4680BC7047DE
:1002300080B483B000AF78600B46FB707B681A69AE
:10024000FB78012101FA03F31340002B01D00123B5
:1002500000E0002318460C37BD4680BC704700BF45
:1002600080B400AF00BFFDE780B582B000AF104B97
:100270007B60104B3B6007E07A68131D7B603B6836
:10028000191D396012681A603B680B4A9342F3D318
:100290000A4B3B6004E03B681A1D3A6000221A607A
:1002A0003B68074A9342F6D3FFF730FF00BFFDE7F4
:1002B000C402000800000020000000200000002010
:0402C000000000201A
:040000050800026984
:00000001FF
